{
  "_format": "hh-sol-artifact-1",
  "contractName": "SendFile",
  "sourceName": "contracts/SendFile.sol",
  "abi": [
    {
      "inputs": [
        {
          "internalType": "string",
          "name": "_FileName",
          "type": "string"
        },
        {
          "internalType": "string",
          "name": "_FileLink",
          "type": "string"
        },
        {
          "internalType": "string",
          "name": "_FileSize",
          "type": "string"
        }
      ],
      "name": "createFiles",
      "outputs": [],
      "stateMutability": "nonpayable",
      "type": "function"
    },
    {
      "inputs": [
        {
          "internalType": "address",
          "name": "_UserAddress",
          "type": "address"
        },
        {
          "internalType": "uint256",
          "name": "index",
          "type": "uint256"
        }
      ],
      "name": "deleteFile",
      "outputs": [],
      "stateMutability": "nonpayable",
      "type": "function"
    },
    {
      "inputs": [
        {
          "internalType": "uint256",
          "name": "",
          "type": "uint256"
        }
      ],
      "name": "files",
      "outputs": [
        {
          "internalType": "address",
          "name": "userAddress",
          "type": "address"
        },
        {
          "internalType": "string",
          "name": "fileSize",
          "type": "string"
        },
        {
          "internalType": "uint256",
          "name": "fileCount",
          "type": "uint256"
        },
        {
          "internalType": "string",
          "name": "fileName",
          "type": "string"
        },
        {
          "internalType": "string",
          "name": "fileLink",
          "type": "string"
        }
      ],
      "stateMutability": "view",
      "type": "function"
    },
    {
      "inputs": [],
      "name": "getFiles",
      "outputs": [
        {
          "components": [
            {
              "internalType": "address",
              "name": "userAddress",
              "type": "address"
            },
            {
              "internalType": "string",
              "name": "fileSize",
              "type": "string"
            },
            {
              "internalType": "uint256",
              "name": "fileCount",
              "type": "uint256"
            },
            {
              "internalType": "string",
              "name": "fileName",
              "type": "string"
            },
            {
              "internalType": "string",
              "name": "fileLink",
              "type": "string"
            }
          ],
          "internalType": "struct SendFile.File[]",
          "name": "",
          "type": "tuple[]"
        }
      ],
      "stateMutability": "view",
      "type": "function"
    }
  ],
  "bytecode": "0x608060405234801561001057600080fd5b50610c8e806100206000396000f3fe608060405234801561001057600080fd5b506004361061004c5760003560e01c80632da96d7314610051578063c52f80dd1461006f578063f2f15be114610084578063f4c714b414610097575b600080fd5b6100596100bb565b6040516100669190610af4565b60405180910390f35b61008261007d366004610972565b6102f0565b005b6100826100923660046109aa565b61047e565b6100aa6100a5366004610a32565b6105b0565b604051610066959493929190610a98565b60606000805480602002602001604051908101604052809291908181526020016000905b828210156102e75760008481526020908190206040805160a081019091526005850290910180546001600160a01b03168252600181018054929391929184019161012890610bdb565b80601f016020809104026020016040519081016040528092919081815260200182805461015490610bdb565b80156101a15780601f10610176576101008083540402835291602001916101a1565b820191906000526020600020905b81548152906001019060200180831161018457829003601f168201915b50505050508152602001600282015481526020016003820180546101c490610bdb565b80601f01602080910402602001604051908101604052809291908181526020018280546101f090610bdb565b801561023d5780601f106102125761010080835404028352916020019161023d565b820191906000526020600020905b81548152906001019060200180831161022057829003601f168201915b5050505050815260200160048201805461025690610bdb565b80601f016020809104026020016040519081016040528092919081815260200182805461028290610bdb565b80156102cf5780601f106102a4576101008083540402835291602001916102cf565b820191906000526020600020905b8154815290600101906020018083116102b257829003601f168201915b505050505081525050815260200190600101906100df565b50505050905090565b816001600160a01b03166000828154811061030d5761030d610c2c565b60009182526020909120600590910201546001600160a01b03161461033157600080fd5b6000805461034190600190610bb6565b8154811061035157610351610c2c565b90600052602060002090600502016000828154811061037257610372610c2c565b60009182526020909120825460059092020180546001600160a01b0319166001600160a01b0390921691909117815560018083018054918301916103b590610bdb565b6103c0929190610794565b506002820154816002015560038201816003019080546103df90610bdb565b6103ea929190610794565b5060048201816004019080546103ff90610bdb565b61040a929190610794565b50905050600080548061041f5761041f610c16565b60008281526020812060056000199093019283020180546001600160a01b031916815590610450600183018261081f565b6002820160009055600382016000610468919061081f565b61047660048301600061081f565b505090555050565b6104b96040518060a0016040528060006001600160a01b03168152602001606081526020016000815260200160608152602001606081525090565b33815260608101849052608081018390526000805460408301819052602080840185815260018301845592805283517f290decd9548b62a8d60345a988386fc84ba6bc95484008f6362f93160ef3e563600590930292830180546001600160a01b0319166001600160a01b0390921691909117815592518051859493610565937f290decd9548b62a8d60345a988386fc84ba6bc95484008f6362f93160ef3e56490910192019061085c565b50604082015160028201556060820151805161058b91600384019160209091019061085c565b50608082015180516105a791600484019160209091019061085c565b50505050505050565b600081815481106105c057600080fd5b6000918252602090912060059091020180546001820180546001600160a01b039092169350906105ef90610bdb565b80601f016020809104026020016040519081016040528092919081815260200182805461061b90610bdb565b80156106685780601f1061063d57610100808354040283529160200191610668565b820191906000526020600020905b81548152906001019060200180831161064b57829003601f168201915b50505050509080600201549080600301805461068390610bdb565b80601f01602080910402602001604051908101604052809291908181526020018280546106af90610bdb565b80156106fc5780601f106106d1576101008083540402835291602001916106fc565b820191906000526020600020905b8154815290600101906020018083116106df57829003601f168201915b50505050509080600401805461071190610bdb565b80601f016020809104026020016040519081016040528092919081815260200182805461073d90610bdb565b801561078a5780601f1061075f5761010080835404028352916020019161078a565b820191906000526020600020905b81548152906001019060200180831161076d57829003601f168201915b5050505050905085565b8280546107a090610bdb565b90600052602060002090601f0160209004810192826107c2576000855561080f565b82601f106107d3578054855561080f565b8280016001018555821561080f57600052602060002091601f016020900482015b8281111561080f5782548255916001019190600101906107f4565b5061081b9291506108d0565b5090565b50805461082b90610bdb565b6000825580601f1061083b575050565b601f01602090049060005260206000209081019061085991906108d0565b50565b82805461086890610bdb565b90600052602060002090601f01602090048101928261088a576000855561080f565b82601f106108a357805160ff191683800117855561080f565b8280016001018555821561080f579182015b8281111561080f5782518255916020019190600101906108b5565b5b8082111561081b57600081556001016108d1565b600082601f8301126108f657600080fd5b813567ffffffffffffffff8082111561091157610911610c42565b604051601f8301601f19908116603f0116810190828211818310171561093957610939610c42565b8160405283815286602085880101111561095257600080fd5b836020870160208301376000602085830101528094505050505092915050565b6000806040838503121561098557600080fd5b82356001600160a01b038116811461099c57600080fd5b946020939093013593505050565b6000806000606084860312156109bf57600080fd5b833567ffffffffffffffff808211156109d757600080fd5b6109e3878388016108e5565b945060208601359150808211156109f957600080fd5b610a05878388016108e5565b93506040860135915080821115610a1b57600080fd5b50610a28868287016108e5565b9150509250925092565b600060208284031215610a4457600080fd5b5035919050565b6000815180845260005b81811015610a7157602081850181015186830182015201610a55565b81811115610a83576000602083870101525b50601f01601f19169290920160200192915050565b6001600160a01b038616815260a060208201819052600090610abc90830187610a4b565b8560408401528281036060840152610ad48186610a4b565b90508281036080840152610ae88185610a4b565b98975050505050505050565b60006020808301818452808551808352604092508286019150828160051b87010184880160005b83811015610ba857888303603f19018552815180516001600160a01b031684528781015160a089860181905290610b5482870182610a4b565b915050878201518886015260608083015186830382880152610b768382610a4b565b9250505060808083015192508582038187015250610b948183610a4b565b968901969450505090860190600101610b1b565b509098975050505050505050565b600082821015610bd657634e487b7160e01b600052601160045260246000fd5b500390565b600181811c90821680610bef57607f821691505b60208210811415610c1057634e487b7160e01b600052602260045260246000fd5b50919050565b634e487b7160e01b600052603160045260246000fd5b634e487b7160e01b600052603260045260246000fd5b634e487b7160e01b600052604160045260246000fdfea264697066735822122064a5fb58e5b42fd6a8ad0882ba5a5c45dd88177cc56dd0720ab55ef2f09ca85064736f6c63430008070033",
  "linkReferences": {},
  "deployedLinkReferences": {}
}