{
  "_format": "hh-sol-artifact-1",
  "contractName": "BuyGb",
  "sourceName": "contracts/BuyGb.sol",
  "abi": [
    {
      "inputs": [
        {
          "internalType": "string",
          "name": "_day",
          "type": "string"
        },
        {
          "internalType": "string",
          "name": "_month",
          "type": "string"
        },
        {
          "internalType": "string",
          "name": "_year",
          "type": "string"
        }
      ],
      "name": "buyGold",
      "outputs": [],
      "stateMutability": "nonpayable",
      "type": "function"
    },
    {
      "inputs": [
        {
          "internalType": "string",
          "name": "_day",
          "type": "string"
        },
        {
          "internalType": "string",
          "name": "_month",
          "type": "string"
        },
        {
          "internalType": "string",
          "name": "_year",
          "type": "string"
        }
      ],
      "name": "buyPreminum",
      "outputs": [],
      "stateMutability": "nonpayable",
      "type": "function"
    },
    {
      "inputs": [],
      "name": "currentRole",
      "outputs": [
        {
          "components": [
            {
              "internalType": "address",
              "name": "userAddress",
              "type": "address"
            },
            {
              "internalType": "string",
              "name": "role",
              "type": "string"
            },
            {
              "internalType": "string",
              "name": "day",
              "type": "string"
            },
            {
              "internalType": "string",
              "name": "month",
              "type": "string"
            },
            {
              "internalType": "string",
              "name": "year",
              "type": "string"
            }
          ],
          "internalType": "struct BuyGb.UserRole[]",
          "name": "",
          "type": "tuple[]"
        }
      ],
      "stateMutability": "view",
      "type": "function"
    },
    {
      "inputs": [
        {
          "internalType": "uint256",
          "name": "",
          "type": "uint256"
        }
      ],
      "name": "userRoles",
      "outputs": [
        {
          "internalType": "address",
          "name": "userAddress",
          "type": "address"
        },
        {
          "internalType": "string",
          "name": "role",
          "type": "string"
        },
        {
          "internalType": "string",
          "name": "day",
          "type": "string"
        },
        {
          "internalType": "string",
          "name": "month",
          "type": "string"
        },
        {
          "internalType": "string",
          "name": "year",
          "type": "string"
        }
      ],
      "stateMutability": "view",
      "type": "function"
    }
  ],
  "bytecode": "0x608060405234801561001057600080fd5b50610bec806100206000396000f3fe608060405234801561001057600080fd5b506004361061004c5760003560e01c80631ebe4c82146100515780636020ad6d1461006f578063acbd75a714610084578063f8e1c05c146100a8575b600080fd5b6100596100bb565b6040516100669190610a93565b60405180910390f35b61008261007d36600461093b565b610378565b005b6100976100923660046109c3565b6104a1565b604051610066959493929190610a29565b6100826100b636600461093b565b61070d565b60606000805480602002602001604051908101604052809291908181526020016000905b8282101561036f5760008481526020908190206040805160a081019091526005850290910180546001600160a01b03168252600181018054929391929184019161012890610b65565b80601f016020809104026020016040519081016040528092919081815260200182805461015490610b65565b80156101a15780601f10610176576101008083540402835291602001916101a1565b820191906000526020600020905b81548152906001019060200180831161018457829003601f168201915b505050505081526020016002820180546101ba90610b65565b80601f01602080910402602001604051908101604052809291908181526020018280546101e690610b65565b80156102335780601f1061020857610100808354040283529160200191610233565b820191906000526020600020905b81548152906001019060200180831161021657829003601f168201915b5050505050815260200160038201805461024c90610b65565b80601f016020809104026020016040519081016040528092919081815260200182805461027890610b65565b80156102c55780601f1061029a576101008083540402835291602001916102c5565b820191906000526020600020905b8154815290600101906020018083116102a857829003601f168201915b505050505081526020016004820180546102de90610b65565b80601f016020809104026020016040519081016040528092919081815260200182805461030a90610b65565b80156103575780601f1061032c57610100808354040283529160200191610357565b820191906000526020600020905b81548152906001019060200180831161033a57829003601f168201915b505050505081525050815260200190600101906100df565b50505050905090565b6103806107dd565b338152604080518082018252600481526319dbdb1960e21b60208083019190915280840191825291830186905260608301859052608083018490526000805460018101825590805283517f290decd9548b62a8d60345a988386fc84ba6bc95484008f6362f93160ef3e563600590920291820180546001600160a01b0319166001600160a01b03909216919091178155915180518594610444937f290decd9548b62a8d60345a988386fc84ba6bc95484008f6362f93160ef3e56401920190610815565b5060408201518051610460916002840191602090910190610815565b506060820151805161047c916003840191602090910190610815565b5060808201518051610498916004840191602090910190610815565b50505050505050565b600081815481106104b157600080fd5b6000918252602090912060059091020180546001820180546001600160a01b039092169350906104e090610b65565b80601f016020809104026020016040519081016040528092919081815260200182805461050c90610b65565b80156105595780601f1061052e57610100808354040283529160200191610559565b820191906000526020600020905b81548152906001019060200180831161053c57829003601f168201915b50505050509080600201805461056e90610b65565b80601f016020809104026020016040519081016040528092919081815260200182805461059a90610b65565b80156105e75780601f106105bc576101008083540402835291602001916105e7565b820191906000526020600020905b8154815290600101906020018083116105ca57829003601f168201915b5050505050908060030180546105fc90610b65565b80601f016020809104026020016040519081016040528092919081815260200182805461062890610b65565b80156106755780601f1061064a57610100808354040283529160200191610675565b820191906000526020600020905b81548152906001019060200180831161065857829003601f168201915b50505050509080600401805461068a90610b65565b80601f01602080910402602001604051908101604052809291908181526020018280546106b690610b65565b80156107035780601f106106d857610100808354040283529160200191610703565b820191906000526020600020905b8154815290600101906020018083116106e657829003601f168201915b5050505050905085565b6107156107dd565b33815260408051808201825260088152677072656d696e756d60c01b60208083019190915280840191825291830186905260608301859052608083018490526000805460018101825590805283517f290decd9548b62a8d60345a988386fc84ba6bc95484008f6362f93160ef3e563600590920291820180546001600160a01b0319166001600160a01b03909216919091178155915180518594610444937f290decd9548b62a8d60345a988386fc84ba6bc95484008f6362f93160ef3e56401920190610815565b6040518060a0016040528060006001600160a01b03168152602001606081526020016060815260200160608152602001606081525090565b82805461082190610b65565b90600052602060002090601f0160209004810192826108435760008555610889565b82601f1061085c57805160ff1916838001178555610889565b82800160010185558215610889579182015b8281111561088957825182559160200191906001019061086e565b50610895929150610899565b5090565b5b80821115610895576000815560010161089a565b600082601f8301126108bf57600080fd5b813567ffffffffffffffff808211156108da576108da610ba0565b604051601f8301601f19908116603f0116810190828211818310171561090257610902610ba0565b8160405283815286602085880101111561091b57600080fd5b836020870160208301376000602085830101528094505050505092915050565b60008060006060848603121561095057600080fd5b833567ffffffffffffffff8082111561096857600080fd5b610974878388016108ae565b9450602086013591508082111561098a57600080fd5b610996878388016108ae565b935060408601359150808211156109ac57600080fd5b506109b9868287016108ae565b9150509250925092565b6000602082840312156109d557600080fd5b5035919050565b6000815180845260005b81811015610a02576020818501810151868301820152016109e6565b81811115610a14576000602083870101525b50601f01601f19169290920160200192915050565b6001600160a01b038616815260a060208201819052600090610a4d908301876109dc565b8281036040840152610a5f81876109dc565b90508281036060840152610a7381866109dc565b90508281036080840152610a8781856109dc565b98975050505050505050565b60006020808301818452808551808352604092508286019150828160051b87010184880160005b83811015610b5757888303603f19018552815180516001600160a01b031684528781015160a089860181905290610af3828701826109dc565b9150508782015185820389870152610b0b82826109dc565b91505060608083015186830382880152610b2583826109dc565b9250505060808083015192508582038187015250610b4381836109dc565b968901969450505090860190600101610aba565b509098975050505050505050565b600181811c90821680610b7957607f821691505b60208210811415610b9a57634e487b7160e01b600052602260045260246000fd5b50919050565b634e487b7160e01b600052604160045260246000fdfea26469706673582212203571aec6fdce6180e95ff0d837af2e4e9ff0196445434722a1e88506d5bf511664736f6c63430008070033",
  "linkReferences": {},
  "deployedLinkReferences": {}
}